:020000040800F2
:1000000000500020494600082945000835450008F1
:10001000454500084B450008514500080000000018
:10002000000000000000000000000000574500082C
:1000300063450008000000006F4500087B4500088C
:100040009146000891460008914600089146000834
:100050009146000891460008914600089146000824
:100060009146000891460008914600089146000814
:100070009146000891460008914600089146000804
:1000800091460008914600089146000891460008F4
:1000900091460008914600089146000891460008E4
:1000A00091460008914600089146000891460008D4
:1000B00091460008914600089146000891460008C4
:1000C00091460008914600089146000891460008B4
:1000D00091460008C13F000891460008914600087B
:1000E0009146000891460008914600080000000073
:1000F0000000000000000000000000000000000000
:0C01000000000000000000005FF808F1A3
:1001100010B5054C237833B9044B13B10448AFF341
:1001200000800123237010BDDC01002000000000CE
:10013000A8AB000808B5034B1BB103490348AFF354
:10014000008008BD00000000E0010020A8AB00080E
:10015000034613F8012B002AFBD1181A0138704707
:1001600081F0004102E000BF83F0004330B54FEA68
:1001700041044FEA430594EA050F08BF90EA020FD5
:100180001FBF54EA000C55EA020C7FEA645C7FEA68
:10019000655C00F0E2804FEA5454D4EB5555B8BF8B
:1001A0006D420CDD2C4480EA020281EA030382EAFC
:1001B000000083EA010180EA020281EA0303362D8E
:1001C00088BF30BD11F0004F4FEA01314FF4801C61
:1001D0004CEA113102D0404261EB410113F0004F73
:1001E0004FEA03334CEA133302D0524263EB43032A
:1001F00094EA050F00F0A780A4F10104D5F1200EC8
:100200000DDB02FA0EFC22FA05F2801841F1000122
:1002100003FA0EF2801843FA05F359410EE0A5F1F6
:1002200020050EF1200E012A03FA0EFC28BF4CF027
:10023000020C43FA05F3C01851EBE37101F00045DD
:1002400007D54FF0000EDCF1000C7EEB00006EEBEA
:100250000101B1F5801F1BD3B1F5001F0CD3490874
:100260005FEA30004FEA3C0C04F101044FEA4452CB
:1002700012F5800F80F09A80BCF1004F08BF5FEA52
:10028000500C50F1000041EB045141EA050130BD32
:100290005FEA4C0C404141EB010111F4801FA4F1D5
:1002A0000104E9D191F0000F04BF01460020B1FA2A
:1002B00081F308BF2033A3F10B03B3F120020CDA62
:1002C0000C3208DD02F1140CC2F10C0201FA0CF040
:1002D00021FA02F10CE002F11402D8BFC2F1200CA5
:1002E00001FA02F120FA0CFCDCBF41EA0C0190405B
:1002F000E41AA2BF01EB0451294330BD6FEA0404A4
:100300001F3C1CDA0C340EDC04F11404C4F120028E
:1003100020FA04F001FA02F340EA030021FA04F3A0
:1003200045EA030130BDC4F10C04C4F1200220FAF7
:1003300002F001FA04F340EA0300294630BD21FA35
:1003400004F0294630BD94F0000F83F4801306BFFB
:1003500081F480110134013D4EE77FEA645C18BFEF
:100360007FEA655C29D094EA050F08BF90EA020F86
:1003700005D054EA000C04BF1946104630BD91EA7E
:10038000030F1EBF0021002030BD5FEA545C05D181
:100390004000494128BF41F0004130BD14F58004C0
:1003A0003CBF01F5801130BD01F0004545F0FE4134
:1003B00041F470014FF0000030BD7FEA645C1ABF69
:1003C000194610467FEA655C1CBF0B46024650EAA0
:1003D000013406BF52EA033591EA030F41F40021CC
:1003E00030BD00BF90F0000F04BF0021704730B552
:1003F0004FF4806404F132044FF000054FF0000127
:1004000050E700BF90F0000F04BF0021704730B5E7
:100410004FF4806404F1320410F0004548BF4042BC
:100420004FF000013EE700BF42004FEAE2014FEA11
:1004300031014FEA02701FBF12F07F4393F07F4FEC
:1004400081F06051704732F07F4208BF704793F0EF
:100450007F4F04BF41F40021704730B54FF4607402
:1004600001F0004521F000411CE700BF50EA010205
:1004700008BF704730B54FF000050AE050EA0102AE
:1004800008BF704730B511F0004502D5404261EB1E
:1004900041014FF4806404F132045FEA915C3FF45F
:1004A000D8AE4FF003025FEADC0C18BF03325FEAFC
:1004B000DC0C18BF033202EBDC02C2F1200300FAAD
:1004C00003FC20FA02F001FA03FE40EA0E0021FAD2
:1004D00002F11444BDE600BF70B54FF0FF0C4CF4C0
:1004E000E06C1CEA11541DBF1CEA135594EA0C0F72
:1004F00095EA0C0F00F0DEF82C4481EA030621EAAD
:100500004C5123EA4C5350EA013518BF52EA0335E7
:1005100041F4801143F4801338D0A0FB02CE4FF099
:100520000005E1FB02E506F00042E0FB03E54FF0C9
:100530000006E1FB03569CF0000F18BF4EF0010EC1
:10054000A4F1FF04B6F5007F64F5407404D25FEABD
:100550004E0E6D4146EB060642EAC62141EA555170
:100560004FEAC52040EA5E504FEACE2EB4F1FD0CB2
:1005700088BFBCF5E06F1ED8BEF1004F08BF5FEA30
:10058000500E50F1000041EB045170BD06F00046E2
:1005900046EA010140EA020081EA0301B4EB5C048F
:1005A000C2BFD4EB0C0541EA045170BD41F4801187
:1005B0004FF0000E013C00F3AB8014F1360FDEBFAC
:1005C000002001F0004170BDC4F10004203C35DA88
:1005D0000C341BDC04F11404C4F1200500FA05F30B
:1005E00020FA04F001FA05F240EA020001F00042AC
:1005F00021F0004110EBD37021FA04F642EB060122
:100600005EEA430E08BF20EAD37070BDC4F10C044B
:10061000C4F1200500FA04F320FA05F001FA04F20F
:1006200040EA020001F0004110EBD37041F10001FB
:100630005EEA430E08BF20EAD37070BDC4F1200506
:1006400000FA05F24EEA020E20FA04F301FA05F26E
:1006500043EA020321FA04F001F0004121FA04F216
:1006600020EA020000EBD3705EEA430E08BF20EAE6
:10067000D37070BD94F0000F0FD101F00046400020
:1006800041EB010111F4801F08BF013CF7D041EAA2
:10069000060195F0000F18BF704703F000465200A6
:1006A00043EB030313F4801F08BF013DF7D043EA77
:1006B0000603704794EA0C0F0CEA135518BF95EA2D
:1006C0000C0F0CD050EA410618BF52EA4306D1D1B4
:1006D00081EA030101F000414FF0000070BD50EAD3
:1006E000410606BF1046194652EA430619D094EA5D
:1006F0000C0F02D150EA013613D195EA0C0F05D147
:1007000052EA03361CBF104619460AD181EA03019A
:1007100001F0004141F0FE4141F470014FF0000052
:1007200070BD41F0FE4141F4780170BD70B54FF0ED
:10073000FF0C4CF4E06C1CEA11541DBF1CEA13556D
:1007400094EA0C0F95EA0C0F00F0A7F8A4EB05044F
:1007500081EA030E52EA03354FEA013100F0888046
:100760004FEA03334FF0805545EA131343EA12630F
:100770004FEA022245EA111545EA10654FEA0026C4
:100780000EF000419D4208BF964244F1FD0404F57D
:10079000407402D25B084FEA3202B61A65EB0305D9
:1007A0005B084FEA32024FF480104FF4002CB6EB96
:1007B000020E75EB030E22BFB61A754640EA0C0016
:1007C0005B084FEA3202B6EB020E75EB030E22BF56
:1007D000B61A754640EA5C005B084FEA3202B6EB97
:1007E000020E75EB030E22BFB61A754640EA9C0056
:1007F0005B084FEA3202B6EB020E75EB030E22BF26
:10080000B61A754640EADC0055EA060E18D04FEAE3
:10081000051545EA16754FEA06164FEAC30343EA83
:1008200052734FEAC2025FEA1C1CC0D111F4801F50
:100830000BD141EA00014FF000004FF0004CB6E749
:1008400011F4801F04BF01430020B4F1FD0C88BFE8
:10085000BCF5E06F3FF6AFAEB5EB030C04BFB6EBF3
:10086000020C5FEA500C50F1000041EB045170BDE6
:100870000EF0004E4EEA113114EB5C04C2BFD4EB13
:100880000C0541EA045170BD41F480114FF0000E97
:10089000013C90E645EA060E8DE60CEA135594EA13
:1008A0000C0F08BF95EA0C0F3FF43BAF94EA0C0F16
:1008B0000AD150EA01347FF434AF95EA0C0F7FF48B
:1008C00025AF104619462CE795EA0C0F06D152EADF
:1008D00003353FF4FDAE1046194622E750EA4106C3
:1008E00018BF52EA43067FF4C5AE50EA41047FF4D4
:1008F0000DAF52EA43057FF4EBAE12E74FF0FF3C39
:1009000006E000BF4FF0010C02E000BF4FF0010C09
:100910004DF804CD4FEA410C7FEA6C5C4FEA430C82
:1009200018BF7FEA6C5C1BD001B050EA410C0CBFD1
:1009300052EA430C91EA030F02BF90EA020F002033
:10094000704710F1000F91EA030F58BF994208BF9A
:1009500090422CBFD8176FEAE37040F00100704757
:100960004FEA410C7FEA6C5C02D150EA013C07D1AE
:100970004FEA430C7FEA6C5CD6D152EA033CD3D0F9
:100980005DF8040B704700BF8446104662468C46F3
:100990001946634600E000BF01B5FFF7B7FF002826
:1009A00048BF10F1000F01BD4DF808EDFFF7F4FF4F
:1009B0000CBF012000205DF808FB00BF4DF808EDDA
:1009C000FFF7EAFF34BF012000205DF808FB00BFFD
:1009D0004DF808EDFFF7E0FF94BF012000205DF81F
:1009E00008FB00BF4DF808EDFFF7CEFF94BF0120D4
:1009F00000205DF808FB00BF4DF808EDFFF7C4FFCD
:100A000034BF012000205DF808FB00BF4FEA410C15
:100A10007FEA6C5C02D150EA013C0AD14FEA430CF8
:100A20007FEA6C5C02D152EA033C02D14FF0000035
:100A300070474FF0010070474FEA410212F5001273
:100A400015D211D56FF47873B3EB625212D94FEA15
:100A5000C12343F0004343EA505311F0004F23FAFF
:100A600002F018BF404270474FF00000704750EA54
:100A7000013005D111F0004008BF6FF00040704711
:100A80004FF00000704700BF4A0011D212F500126B
:100A900011D20DD56FF47873B3EB62520ED44FEAD6
:100AA000C12343F0004343EA505323FA02F0704756
:100AB0004FF00000704750EA013002D14FF0FF3094
:100AC00070474FF0000070474FEA4102B2F1E04337
:100AD00024BFB3F5001CDCF1FE5C0DD901F0004C25
:100AE0004FEAC0024CEA5070B2F1004F40EB830075
:100AF00008BF20F00100704711F0804F21D113F1A1
:100B00003872BCBF01F00040704741F480114FEAD9
:100B10005252C2F11802C2F1200C10FA0CF320FA62
:100B200002F018BF40F001004FEAC1234FEAD3237F
:100B300003FA0CFC40EA0C0023FA02F34FEA4303E9
:100B4000CCE77FEA625307D150EA01331EBF4FF072
:100B5000FE4040F44000704701F0004040F0FE408D
:100B600040F40000704700BF80F0004002E000BF8A
:100B700081F0004142001FBF5FEA410392EA030F88
:100B80007FEA226C7FEA236C6AD04FEA1262D2EBD2
:100B90001363C1BFD218414048404140B8BF5B42D7
:100BA000192B88BF704710F0004F40F4000020F070
:100BB0007F4018BF404211F0004F41F4000121F086
:100BC0007F4118BF494292EA030F3FD0A2F10102D0
:100BD00041FA03FC10EB0C00C3F1200301FA03F10E
:100BE00000F0004302D5494260EB4000B0F5000F31
:100BF00013D3B0F1807F06D340084FEA310102F1F0
:100C00000102FE2A51D2B1F1004F40EBC25008BFA1
:100C100020F0010040EA03007047490040EB00006B
:100C200010F4000FA2F10102EDD1B0FA80FCACF19A
:100C3000080CB2EB0C0200FA0CF0AABF00EBC25099
:100C400052421843BCBFD0401843704792F0000F87
:100C500081F4000106BF80F400000132013BB5E7DA
:100C60004FEA41037FEA226C18BF7FEA236C21D050
:100C700092EA030F04D092F0000F08BF08467047B5
:100C800090EA010F1CBF0020704712F07F4F04D183
:100C9000400028BF40F00040704712F100723CBF96
:100CA00000F50000704700F0004343F0FE4040F4C0
:100CB000000070477FEA226216BF08467FEA23637E
:100CC0000146420206BF5FEA412390EA010F40F469
:100CD000800070474FF0000304E000BF10F00043B5
:100CE00048BF40425FEA000C08BF704743F096439C
:100CF00001464FF000001CE050EA010208BF7047B7
:100D00004FF000030AE000BF50EA010208BF70473D
:100D100011F0004302D5404261EB41015FEA010C52
:100D200002BF84460146002043F0B64308BFA3F14A
:100D30008053A3F50003BCFA8CF2083AA3EBC2532C
:100D400010DB01FA02FC634400FA02FCC2F120024B
:100D5000BCF1004F20FA02F243EB020008BF20F082
:100D60000100704702F1200201FA02FCC2F12002E8
:100D700050EA4C0021FA02F243EB020008BF20EADD
:100D8000DC7070474FF0FF0C1CEAD0521EBF1CEA0B
:100D9000D15392EA0C0F93EA0C0F6FD01A4480EAF9
:100DA000010C400218BF5FEA41211ED04FF00063E2
:100DB00043EA501043EA5111A0FB01310CF000400E
:100DC000B1F5000F3EBF490041EAD3715B0040EA34
:100DD000010062F17F02FD2A1DD8B3F1004F40EB04
:100DE000C25008BF20F00100704790F0000F0CF0D7
:100DF000004C08BF49024CEA502040EA51207F3A9B
:100E0000C2BFD2F1FF0340EAC250704740F4000075
:100E10004FF00003013A5DDC12F1190FDCBF00F066
:100E200000407047C2F10002410021FA02F1C2F114
:100E3000200200FA02FC5FEA310040F1000053EAB0
:100E40004C0308BF20EADC70704792F0000F00F0FE
:100E5000004C02BF400010F4000F013AF9D040EA04
:100E60000C0093F0000F01F0004C02BF490011F498
:100E7000000F013BF9D041EA0C018FE70CEAD15396
:100E800092EA0C0F18BF93EA0C0F0AD030F0004C16
:100E900018BF31F0004CD8D180EA010000F00040CA
:100EA000704790F0000F17BF90F0004F084691F088
:100EB000000F91F0004F14D092EA0C0F01D14202C2
:100EC0000FD193EA0C0F03D14B0218BF084608D18B
:100ED00080EA010000F0004040F0FE4040F40000D5
:100EE000704740F0FE4040F4400070474FF0FF0C68
:100EF0001CEAD0521EBF1CEAD15392EA0C0F93EAAF
:100F00000C0F69D0A2EB030280EA010C49024FEA00
:100F1000402037D04FF0805343EA111143EA1013B9
:100F20000CF000408B4238BF5B0042F17D024FF471
:100F3000000C8B4224BF5B1A40EA0C00B3EB510F4C
:100F400024BFA3EB510340EA5C00B3EB910F24BF35
:100F5000A3EB910340EA9C00B3EBD10F24BFA3EBBA
:100F6000D10340EADC001B0118BF5FEA1C1CE0D182
:100F7000FD2A3FF650AF8B4240EBC25008BF20F035
:100F8000010070470CF0004C4CEA50207F32C2BF89
:100F9000D2F1FF0340EAC250704740F400004FF026
:100FA0000003013A37E792F0000F00F0004C02BF57
:100FB000400010F4000F013AF9D040EA0C0093F021
:100FC000000F01F0004C02BF490011F4000F013B7B
:100FD000F9D041EA0C0195E70CEAD15392EA0C0FE3
:100FE00008D142027FF47DAF93EA0C0F7FF470AF1B
:100FF000084676E793EA0C0F04D14B023FF44CAF5E
:1010000008466EE730F0004C18BF31F0004CCAD1F2
:1010100030F000427FF45CAF31F000437FF43CAF2E
:101020005FE700BF4FF0FF3C06E000BF4FF0010C50
:1010300002E000BF4FF0010C4DF804CD4FEA400232
:101040004FEA41037FEA226C18BF7FEA236C11D07C
:1010500001B052EA530C18BF90EA010F58BFB2EB2F
:10106000030088BFC81738BF6FEAE17018BF40F0AF
:10107000010070477FEA226C02D15FEA402C05D163
:101080007FEA236CE4D15FEA412CE1D05DF8040BE8
:10109000704700BF844608466146FFE70FB5FFF77B
:1010A000C9FF002848BF10F1000F0FBD4DF808ED33
:1010B000FFF7F4FF0CBF012000205DF808FB00BF24
:1010C0004DF808EDFFF7EAFF34BF012000205DF87E
:1010D00008FB00BF4DF808EDFFF7E0FF94BF0120CB
:1010E00000205DF808FB00BF4DF808EDFFF7D2FFC8
:1010F00094BF012000205DF808FB00BF4DF808ED0B
:10110000FFF7C8FF34BF012000205DF808FB00BFD7
:101110004FEA40024FEA41037FEA226C02D15FEAC4
:10112000402C08D17FEA236C02D15FEA412C02D126
:101130004FF0000070474FF00100704742000ED2A0
:10114000B2F1FE4F0BD34FF09E03B3EB126209D402
:101150004FEA002343F0004323FA02F070474FF0B8
:101160000000704712F1610F01D1420202D14FF02D
:10117000FF3070474FF00000704700BF90B583B05C
:1011800000AFA44B01221A8000F002FB0346184670
:10119000FFF7A0FD03467B609F4B1B6819467868EC
:1011A000FFF7E6FC03461A469B4B5B681946104660
:1011B000FFF7E8FD03461846984B99684FF07A53BD
:1011C0004FF07D5200F012FB0246944B9A60914B17
:1011D00002221A8000F0DCFA03461846FFF77AFD77
:1011E00003467B608C4B9B6819467868FFF7C0FC10
:1011F00003461A46884BDB6819461046FFF7C2FDC6
:1012000003461846854BD9684FF07A534FF07D520C
:1012100000F0ECFA0246814BDA607E4B03221A8022
:1012200000F0B6FA03461846FFF754FD03467B600C
:10123000794B1B6919467868FFF79AFC03461A46F2
:10124000754B5B6919461046FFF79CFD034618462F
:10125000724B19694FF07A534FF07D5200F0C6FA85
:1012600002466E4B1A616B4B04221A8000F090FA12
:1012700003461846FFF72EFD03467B60664B9B69CD
:1012800019467868FFF774FC03461A46624BDB691F
:1012900019461046FFF776FD034618465F4B59691D
:1012A0004FF07A534FF07D5200F0A0FA02465B4BAC
:1012B0005A61584B05221A8000F06AFA0346184614
:1012C000FFF708FD03467B60534B1C6A524B5B6A79
:1012D00079681846FFF756FD034619462046FFF782
:1012E00049FC034618464D4B99694FF07A534FF02D
:1012F0007D5200F07BFA0246484B9A61454B06222C
:101300001A8000F045FA03461846FFF7E3FC03464F
:101310007B60414B9C6A404BDB6A79681846FFF75B
:1013200031FD034619462046FFF724FC03461846C4
:101330003A4BD9694FF07A534FF07D5200F056FA8C
:101340000246364BDA61334B07221A8000F020FA4E
:1013500003461846FFF7BEFC03467B602E4B1C6B12
:101360002D4B5B6B79681846FFF70CFD0346194659
:101370002046FFF7FFFB03461846284B196A4FF03B
:101380007A534FF07D5200F031FA0246234B1A6235
:10139000204B08221A8000F0FBF903461846FFF79D
:1013A00099FC03467B601C4B9C6B1B4BDB6B796889
:1013B0001846FFF7E7FC034619462046FFF7DAFB1D
:1013C00003461846154B596A4FF07A534FF07D5239
:1013D00000F00CFA0246114B5A620E4B09221A8099
:1013E00000F0D6F903461846FFF774FC03467B600D
:1013F000094B1B6C19467868FFF7BAFB03461A467F
:10140000054B5B6C19461046FFF7BCFC03461846BB
:1014100006E000BFEC02002068240020D413002066
:10142000784B996A4FF07A534FF07D5200F0DEF915
:101430000246744B9A62744B0A221A8000F0A8F993
:1014400003461846FFF746FC03467B606F4B9B6CD8
:1014500019467868FFF78CFB03461A466B4BDB6C2A
:1014600019461046FFF78EFC03461846654BD96AAD
:101470004FF07A534FF07D5200F0B8F90246614BBD
:10148000DA62614B0B221A8000F082F9034618469B
:10149000FFF720FC03467B600321786801F0ACFC79
:1014A00003461A465A495B4806F090FB594802F039
:1014B000A7FE564B1B6D19467868FFF759FB03468C
:1014C0001A46524B5B6D19461046FFF75BFC03460C
:1014D00018464C4B196B4FF07A534FF07D5200F089
:1014E00085F90246474B1A63464B1B6B032118468E
:1014F00001F082FC03461A464549464806F066FB61
:10150000444802F07DFE404B0C221A8000F040F966
:1015100003461846FFF7DEFB03461846FFF70EFEAC
:1015200003467B807B881846FFF7D8FB0246374B83
:10153000DB6D19461046FFF725FC03461A46334B70
:101540009B6D19461046FFF713FB034618462D4BBB
:10155000596B4FF07A534FF07D5200F047F9024635
:10156000284B5A63284B11221A8000F011F90346C8
:101570001846FFF7AFFB03467B60244B9B6E194672
:101580007868FFF7F5FA03461A46204BDB6E1946DA
:101590001046FFF7F7FB034618461A4B996B4FF0BE
:1015A0007A534FF07D5200F021F90246154B9A63B1
:1015B000154B10221A8000F0EBF803461846FFF78F
:1015C00089FB03467B60114B1B6E19467868FFF759
:1015D000CFFA03461A460D4B5B6E19461046FFF7CD
:1015E000D1FB03461846074BD96B4FF07A534FF0A7
:1015F0007D5200F0FBF80246024BDA6300BF0C3765
:10160000BD4690BDD4130020EC02002068240020C9
:10161000C0AB0008A4020020B0B400AF404B4FF0B4
:1016200000021A603E4B3F4A5A603D4B1B683C4AE1
:1016300093603B4B1B683A4A1361394B1B68384A2D
:101640009361374B5B68364AD360354B5B68344AED
:101650005361334B5B68324AD361314B324A1A6271
:101660002F4B324A5A622E4B1B6A2D4A93622C4BE7
:101670005B6A2B4AD3622A4B1B6A294A1363284BA5
:101680005B6A274A5363264B1B6A254A9363244BA4
:101690005B6A234AD363224B4FF000021A64204B4B
:1016A000234A5A641E4B4FF000029A641C4B214A95
:1016B000DA641B4B4FF000021A65194B1E4A5A653B
:1016C000174B4FF000029A65154B1C4ADA65144B14
:1016D0001B68134A9366124B5B68114AD366104B22
:1016E000174A1A660E4B124A5A66164A164B144689
:1016F0001D460FCD0FC495E80300206004342180FF
:1017000002340B0C2370114A114B14460FCB07C443
:10171000238002341B0C237000BFBD46B0BC704751
:10172000682400205F0CA53D333385C2F06DFA3C80
:101730000943533A9D66813BBF49D33A567DEE3EFD
:10174000CDCC99C3D8240020D8AB000814250020A4
:10175000F0AB000880B487B000AF0346B9607A6090
:10176000FB730A4B7B61FB7BDB001A467B691344EE
:10177000BA681A60FB7BDB0004337A6913447A6829
:101780001A6000BF1C37BD4680BC7047682400202B
:1017900080B582B000AF124B1B881A46114B1A60FD
:1017A000104B01225A600F4B07229A600D490E48D8
:1017B00003F080FA0C4803F0C9F800BF05210A487D
:1017C00003F072F90346002BF8D0074803F066FADD
:1017D0000346FB80FB8818460837BD4680BD00BF26
:1017E000EC020020E0020020A413002090B585B098
:1017F00000AFF860B9607A603B60B9687868FFF75D
:10180000C1FA03461C46F9683868FFF7BBFA03467D
:1018100019462046FFF7AEF9034618461437BD4671
:1018200090BD000090B5D1B000AF2023A7F8CC3018
:101830000023A7F83E31C14B1B881A46C04B9B6C56
:101840009A4204D9BD4B1B881A46BD4B9A64BB4BC8
:101850001B89012B41F0B582B84BDB88502B01F27C
:10186000AB82B64B9B881A46B64BD118B34BDB887C
:101870001A4607F1D003184606F0F1F9B24B1B786F
:101880001A4613469B0013445B00184602F064FF9F
:1018900007F1CC0207F1D0031146184607F076F89D
:1018A0000346184605F028FB034687F83D31A64B52
:1018B0001B7897F83D219A4204D097F83D31002BD0
:1018C00041F07482A14802F09BFC07F1CC03194659
:1018D000002007F05BF8C7F83801984BDB88002B35
:1018E00009D10123A7F83E3197F83D31002B02D0F2
:1018F000974802F039FC05229649D7F8380106F0DE
:101900009CF90346002B0ED10123A7F83E3197F82E
:101910003D31002B05D0904802F026FC322002F029
:101920001BFF03F02CFD04228C49D7F8380106F088
:1019300084F90346002B48D197F83D31002B44D061
:101940000123A7F83E31864802F00EFC854802F0DC
:101950000BFC854802F008FC844802F005FC844832
:1019600002F002FC834802F0FFFB834802F0FCFB1C
:10197000824802F0F9FB824802F0F6FB814802F04F
:10198000F3FB814802F0F0FB804802F0EDFB804859
:1019900002F0EAFB7F4802F0E7FB7F4802F0E4FB3D
:1019A0007E4802F0E1FB7E4802F0DEFB7D4802F05B
:1019B000DBFB7D4802F0D8FB7C4802F0D5FB7C487D
:1019C00002F0D2FB7B4802F0CFFB03227A49D7F822
:1019D000380106F032F90346002B18D197F83D3153
:1019E000002B14D00123A7F83E3107F15400734BAC
:1019F000734A744906F0EAF8734802F0B5FB07F140
:101A00005403184602F0B0FB704802F0ADFB04220C
:101A10006F49D7F8380106F010F90346002B40F063
:101A20000D8397F83D31002B00F008830123A7F8C0
:101A30003E31684802F098FB674802F095FB07F1D9
:101A40005403664A6649184606F0C0F807F1540385
:101A5000184602F089FB07F15403624A62491846AE
:101A600006F0B4F807F15403184602F07DFB364B3C
:101A70001B781A4607F154035C49184606F0A6F88D
:101A800007F15403184602F06FFB524802F06CFB5A
:101A90002B4B9B680321184601F0AEF9024607F173
:101AA00054035349184606F091F807F154031846B9
:101AB00002F05AFB224BDB680321184601F09CF927
:101AC000024607F154034B49184606F07FF807F128
:101AD0005403184602F048FB194B1B6903211846B2
:101AE00001F08AF9024607F154034349184606F00B
:101AF0006DF807F15403184602F036FB104B5B6992
:101B00000321184601F078F9024607F154033B49D6
:101B1000184606F05BF807F15403184602F024FB60
:101B2000374802F021FB0821364803F093FD0346B5
:101B3000002B6BD0344802F017FB6AE04003002012
:101B4000D41300204A0300206014002018AC0008C1
:101B500038AC000840AC000848AC000860AC000895
:101B600068AC000894AC0008DCAC00081CAD0008B0
:101B700070AD0008CCAD00081CAE000868AE0008CF
:101B8000B0AE0008FCAE000844AF00088CAF0008FF
:101B9000D0AF00081CB000086CB00008B8B0000856
:101BA00008B100084CB1000894B10008E0B1000889
:101BB00028B2000878B20008D0B20008D4B20008F9
:101BC000E0B20008FCB2000808B300083CB300080B
:101BD00070B3000878B30008ACB30008D824002024
:101BE000C0B3000814250020D8B30008F4B30008DF
:101BF0000CB4000828B4000844B4000860B400081D
:101C00007CB400080010014084B40008DC4802F0F5
:101C1000ABFADC4B93F8E8301846FEF7F3FB4FF0D5
:101C200000024FF08043FEF781FD03460C46184644
:101C30002146FEF749FF03460121184601F0DCF872
:101C4000024607F15403D049184605F0BFFF07F1DB
:101C50005403184602F088FACA4B93F8E930184644
:101C6000FEF7D0FB4FF000024FF08043FEF75EFD21
:101C700003460C4618462146FEF726FF034601217F
:101C8000184601F0B9F8024607F15403BF49184657
:101C900005F09CFF07F15403184602F065FAB94BB2
:101CA00093F8EA301846FEF7ADFB4FF000024FF014
:101CB0008043FEF73BFD03460C4618462146FEF7DF
:101CC00003FF03460121184601F096F8024607F18A
:101CD0005403AF49184605F079FF07F1540318463D
:101CE00002F042FAA74B93F8EB301846FEF78AFB56
:101CF0004FF000024FF08043FEF718FD03460C46FC
:101D000018462146FEF7E0FE03460121184601F081
:101D100073F8024607F154039E49184605F056FF32
:101D200007F15403184602F01FFA964B93F8EC3073
:101D30001846FEF767FB4FF000024FF08043FEF7B6
:101D4000F5FC03460C4618462146FEF7BDFE034649
:101D50000121184601F050F8024607F154038E495C
:101D6000184605F033FF07F15403184602F0FCF95A
:101D7000844B93F8ED301846FEF744FB4FF0000219
:101D80004FF08043FEF7D2FC03460C46184621462E
:101D9000FEF79AFE03460121184601F02DF802468F
:101DA00007F154037D49184605F010FF07F154036D
:101DB000184602F0D9F9734B93F8EE301846FEF747
:101DC00021FB4FF000024FF08043FEF7AFFC0346CB
:101DD0000C4618462146FEF777FE034601211846B9
:101DE00001F00AF8024607F154036D49184605F060
:101DF000EDFE07F15403184602F0B6F9614B93F873
:101E0000EF301846FEF7FEFA4FF000024FF0804325
:101E1000FEF78CFC03460C4618462146FEF754FE9E
:101E200003460121184600F0E7FF024607F154037C
:101E30005C49184605F0CAFE07F15403184602F043
:101E400093F9504B93F8F1301846FEF7DBFA4FF058
:101E500000024FF08043FEF769FC03460C4618462B
:101E60002146FEF731FE03460121184600F0C4FF6B
:101E7000024607F154034C49184605F0A7FE07F146
:101E80005403184602F070F9484802F06DF9484BC7
:101E90009B690321184600F0AFFF024607F1540387
:101EA0004449184605F092FE07F15403184602F023
:101EB0005BF93F4BDB690321184600F09DFF0246AA
:101EC00007F154033C49184605F080FE07F154031E
:101ED000184602F049F9364B1B6A0321184600F0F8
:101EE0008BFF024607F154033449184605F06EFE95
:101EF00007F15403184602F037F92D4B5B6A0321B2
:101F0000184600F079FF024607F154032C491846A1
:101F100005F05CFE07F15403184602F025F923484A
:101F200002F022F9224B9B6A0321184600F064FF5D
:101F3000024607F154032349184605F047FE07F10E
:101F40005403184602F010F9194BDB6A03211846B6
:101F500000F052FF024607F154031B49184605F0F2
:101F600035FE07F15403184602F0FEF8104B1B6BC8
:101F70000321184600F040FF024607F1540325E014
:101F8000A0B4000868240020C0B40008E0B4000831
:101F900000B5000820B5000840B5000860B500088D
:101FA00080B50008A0B50008C0B500087CB40008E2
:101FB000D4130020E0B50008F8B5000810B60008FA
:101FC00028B6000840B6000858B60008DA49184696
:101FD00005F0FCFD07F15403184602F0C5F8D74B95
:101FE0005B6B0321184600F007FF024607F154031C
:101FF000D349184605F0EAFD07F15403184602F0EC
:10200000B3F8CE4B5A6C07F15403CE49184605F08D
:10201000DDFD07F15403184602F0A6F8C74B9A6C91
:1020200007F15403C849184605F0D0FD07F15403E1
:10203000184602F099F8C54802F096F80322C44900
:10204000D7F8380105F0F9FD0346002B40F08881F0
:1020500097F83D31002B00F083810123A7F83E3132
:1020600007F1540320221A80B44B9B6803211846C1
:1020700000F0C2FE02463B1DB649184605F0A6FD1B
:102080003A1D07F154031146184605F0BFFD0246FC
:1020900007F154031146184605F0C7FDA74BDB684E
:1020A0000321184600F0A8FE02463B1DA949184628
:1020B00005F08CFD3A1D07F154031146184605F052
:1020C000A5FD024607F154031146184605F0ADFD83
:1020D0009A4B1B690321184600F08EFE02463B1DF9
:1020E0009C49184605F072FD3A1D07F1540311464C
:1020F000184605F08BFD024607F1540311461846B9
:1021000005F093FD8D4B5B690321184600F074FECA
:1021100002463B1D8F49184605F058FD3A1D07F150
:1021200054031146184605F071FD024607F15403A9
:102130001146184605F079FD804B9B69032118462E
:1021400000F05AFE02463B1D8249184605F03EFD4E
:102150003A1D07F154031146184605F057FD024693
:1021600007F154031146184605F05FFD734BDB6918
:102170000321184600F040FE02463B1D75491846F3
:1021800005F024FD3A1D07F154031146184605F0E9
:102190003DFD024607F154031146184605F045FD82
:1021A000664B1B6A0321184600F026FE02463B1DC3
:1021B0006849184605F00AFD3A1D07F15403114617
:1021C000184605F023FD024607F154031146184650
:1021D00005F02BFD594B5B6A0321184600F00CFEFD
:1021E00002463B1D5B49184605F0F0FC3A1D07F11D
:1021F00054031146184605F009FD024607F1540341
:102200001146184605F011FD4C4B9B6A03211846F8
:1022100000F0F2FD02463B1D4E49184605F0D6FC83
:102220003A1D07F154031146184605F0EFFC02462B
:1022300007F154031146184605F0F7FC3F4BDB6AE3
:102240000321184600F0D8FD02463B1D41491846BF
:1022500005F0BCFC3A1D07F154031146184605F081
:10226000D5FC024607F154031146184605F0DDFC83
:10227000324B1B6B0321184600F0BEFD02463B1D8E
:102280003449184605F0A2FC3A1D07F154031146E3
:10229000184605F0BBFC024607F1540311461846E8
:1022A00005F0C3FC254B5B6B0321184600F0A4FD31
:1022B00002463B1D2749184605F088FC3A1D07F1E8
:1022C00054031146184605F0A1FC024607F15403D9
:1022D0001146184605F0A9FC184B5A6C3B1D1E49C7
:1022E000184605F073FC3A1D07F1540311461846D1
:1022F00005F08CFC024607F154031146184605F020
:1023000094FC0E4B9A6C3B1D1449184605F05EFC7C
:102310003A1D07F154031146184605F077FC0246B2
:1023200007F154031146184605F07FFC07F15403EA
:10233000184601F019FF13E06CB60008D413002012
:1023400080B6000890B60008A8B60008C4B6000819
:10235000C8B60008CCB60008D0B60008D8B6000849
:102360000322C749D7F8380105F067FC0346002B64
:1023700035D10123A7F83E3107F1CC0319460020DF
:1023800006F004FB0346184604F0B6FD034687F842
:10239000373107F1CC031946002006F0F7FA03465F
:1023A000184604F0A9FD034687F8363107F1CC033F
:1023B0001946002006F0EAFA03460021184606F006
:1023C00097FAC7F8300197F8362197F83711D7F800
:1023D0003031AC4800F01AFEAB4801F0C5FE0322D4
:1023E000AA49D7F8380105F028FC0346002B3AD15A
:1023F0000123A7F83E3107F1CC031946002006F06F
:10240000C5FA0346184604F077FD0346A7F82E31B7
:1024100007F1CC031946002006F0B8FA0346184627
:1024200004F06AFD034687F82D31B7F82E2197F89E
:102430002D311946934801F08FF8B7F82E3119461F
:10244000904801F0D7F8034687F82C3197F82C21F3
:1024500007F154038E49184605F0B8FB07F1540301
:10246000184601F081FE03228A49D7F8380105F0A9
:10247000E4FB0346002B05D10123A7F83E31814838
:1024800001F024FA04228449D7F8380105F0D5FB7D
:102490000346002B0CD10123A7F83E31012000F0A8
:1024A000FDFF97F83D31002B02D07C4801F05CFE27
:1024B00005227B49D7F8380105F0BFFB0346002B06
:1024C0000CD10123A7F83E31002000F0E7FF97F878
:1024D0003D31002B02D0734801F046FE06227249BE
:1024E000D7F8380105F0A9FB0346002B18D10123CA
:1024F000A7F83E31002000F0D1FF0A2002F02CF9AD
:10250000012000F0E7FF0A2002F026F9012000F088
:10251000C5FF97F83D31002B02D0644801F024FE3E
:1025200006226349D7F8380105F087FB0346002BE4
:102530000CD10123A7F83E31002000F0CBFF97F823
:102540003D31002B02D05B4801F00EFE03225A49B8
:10255000D7F8380105F071FB0346002B09D10123A0
:10256000A7F83E3197F83D31002B02D0534801F0D7
:10257000FBFD03225249D7F8380105F05EFB034604
:10258000002B1AD10123A7F83E314E4B1B781A4677
:1025900007F154004C4B4D4905F018FB494B1B7893
:1025A0001A4613469B0013445B00184602F0D4F809
:1025B00007F15403184601F0D7FD03224449D7F828
:1025C000380105F03AFB0346002B12D197F83D3154
:1025D000002B0ED00123A7F83E3107F154033A4AED
:1025E0003C49184605F0F2FA07F15403184601F089
:1025F000BBFD05223849D7F8380105F01EFB03461C
:10260000002B12D197F83D31002B0ED00123A7F8F3
:102610003E3107F154032C4A2E49184605F0D6FAEC
:1026200007F15403184601F09FFD04222B49D7F807
:10263000380105F002FB0346002B17D10123A7F850
:102640003E3107F1CC031946002006F09FF90346FE
:10265000184604F051FC034687F82B3197F82B31CC
:102660009AB21F4B1A801F4801F07EFD07221E49B7
:10267000D7F8380105F0E1FA0346002B6CD135E0BC
:10268000E0B600084C130020E8B60008FCB60008CD
:1026900000B7000818B7000820B7000828B70008DE
:1026A0003CB7000844B700085CB7000864B70008EE
:1026B00078B7000880B7000890B7000838AC000869
:1026C00094B7000860140020D82400209CB70008AC
:1026D000B8B70008BCB70008C4B70008CCB70008FA
:1026E000D4130020D4B70008E0B700080123A7F8EE
:1026F0003E3107F1CC031946002006F047F90346A6
:10270000184604F0F9FB034687F82A3107F1CC0399
:102710001946002006F03AF903460021184606F053
:10272000E7F8C7F8240107F1CC031946002006F0AA
:102730002DF903460021184606F0DAF8C7F8200103
:1027400097F82A31D7F82021D7F824111846FFF737
:1027500001F84B4801F008FD05224A49D7F8380135
:1027600005F06BFA0346002B15D197F83D31002B8D
:1027700011D00123A7F83E3107F1CC031946002000
:1027800006F004F903463C2219463F4805F067FA73
:102790003E4801F0E9FC05223D49D7F8380105F033
:1027A0004CFA0346002B15D197F83D31002B11D080
:1027B0000123A7F83E3107F1CC031946002006F0AB
:1027C000E5F803463C221946324805F048FA3248FB
:1027D00001F0CAFC07223149D7F8380105F02DFA7B
:1027E0000346002B08D10123A7F83E312C4800F006
:1027F000A5FF2C4801F0B8FC06222B49D7F8380178
:1028000005F01BFA0346002B07D10123A7F83E3140
:10281000FEF702FF254801F0A7FC07222449D7F85C
:10282000380105F00AFA0346002B08D10123A7F866
:102830003E311B4800F0ECFF1E4801F095FC0322DE
:102840001D49D7F8380105F0F8F90346002B40D1AF
:102850000123A7F83E3107F1CC031946002006F00A
:1028600095F80346184604F047FB0346002B29D091
:10287000124B012283F84020114801F075FC28E03A
:10288000E8B70008FCB70008D824002004B8000806
:1028900010B800081425002018B8000828B800084F
:1028A0004C13002030B8000848B8000850B80008A1
:1028B0007CB8000884B80008A8B80008D413002029
:1028C000B0B80008D14B002283F84020D04801F076
:1028D0004BFC0422CF49D7F8380105F0AEF9034686
:1028E000002B40F0528297F83D31002B00F04D82D2
:1028F0000123A7F83E31C84801F036FCC74B1B68DE
:102900001846FDF791FD03460C4607F154001A46A0
:102910002346C34905F05AF907F15403184601F05C
:1029200023FCBE4B5B681846FDF77EFD03460C4654
:1029300007F154001A462346BA4905F047F907F152
:102940005403184601F010FCB44B9B681846FDF781
:102950006BFD03460C4607F154001A462346B24964
:1029600005F034F907F15403184601F0FDFBAB4BB9
:10297000DB681846FDF758FD03460C4607F1540086
:102980001A462346A94905F021F907F154031846D0
:1029900001F0EAFBA14B1B691846FDF745FD034614
:1029A0000C4607F154001A462346A14905F00EF9DA
:1029B00007F15403184601F0D7FB984B5B691846A2
:1029C000FDF732FD03460C4607F154001A46234634
:1029D000984905F0FBF807F15403184601F0C4FBD1
:1029E0008E4B9B691846FDF71FFD03460C4607F109
:1029F00054001A462346904905F0E8F807F15403BD
:102A0000184601F0B1FB854BDB691846FDF70CFD5C
:102A100003460C4607F154001A462346874905F041
:102A2000D5F807F15403184601F09EFB7B4B1B6A57
:102A30001846FDF7F9FC03460C4607F154001A4608
:102A400023467F4905F0C2F807F15403184601F008
:102A50008BFB724B5B6A1846FDF7E6FC03460C469F
:102A600007F154001A462346764905F0AFF807F1FE
:102A70005403184601F078FB684B9B6A1846FDF733
:102A8000D3FC03460C4607F154001A4623466E4910
:102A900005F09CF807F15403184601F065FB5F4B05
:102AA000DB6A1846FDF7C0FC03460C4607F15400EC
:102AB0001A462346654905F089F807F1540318467C
:102AC00001F052FB554B1B6B1846FDF7ADFC03465E
:102AD0000C4607F154001A4623465D4905F076F886
:102AE00007F15403184601F03FFB4C4B5B6B184653
:102AF000FDF79AFC03460C4607F154001A4623469C
:102B0000544905F063F807F15403184601F02CFB13
:102B1000424B9B6B1846FDF787FC03460C4607F1BA
:102B200054001A4623464C4905F050F807F1540367
:102B3000184601F019FB394BDB6B1846FDF774FCA6
:102B400003460C4607F154001A462346434905F054
:102B50003DF807F15403184601F006FB2F4B1B6CA0
:102B60001846FDF761FC03460C4607F154001A466F
:102B700023463B4905F02AF807F15403184601F0B3
:102B8000F3FA264B5B6C1846FDF74EFC03460C46E9
:102B900007F154001A462346324905F017F807F1A9
:102BA0005403184601F0E0FA1C4B9B6C1846FDF7E5
:102BB0003BFC03460C4607F154001A4623462A49BB
:102BC00005F004F807F15403184601F0CDFA134B51
:102BD000DB6C1846FDF728FC03460C4607F1540051
:102BE0001A462346214904F0F1FF07F15403184621
:102BF00001F0BAFA094B1B6D1846FDF715FC0346A8
:102C00000C4607F154001A46234631E0D413002045
:102C1000C4B80008D8B800087CB4000868240020B4
:102C2000E4B8000800B900081CB9000838B9000869
:102C300054B9000870B900088CB90008A8B9000898
:102C4000C4B90008DCB90008F4B900080CBA0008DF
:102C500024BA00083CBA000854BA00086CBA00084C
:102C600084BA0008A0BA0008BCBA0008D4BA0008A8
:102C7000564904F0ABFF07F15403184601F074FA0B
:102C8000534B5B6D1846FDF7CFFB03460C4607F12F
:102C900054001A4623464F4904F098FF07F15403A5
:102CA000184601F061FA4A4B9B6D1846FDF7BCFBD4
:102CB00003460C4607F154001A462346464904F0E1
:102CC00085FF07F15403184601F04EFA404BDB6DC7
:102CD0001846FDF7A9FB03460C4607F154001A46B7
:102CE00023463E4904F072FF07F15403184601F0F1
:102CF0003BFA374B1B6E1846FDF796FB03460C4616
:102D000007F154001A462346354904F05FFF07F1E6
:102D10005403184601F028FA2D4B5B6E1846FDF758
:102D200083FB03460C4607F154001A4623462D49FF
:102D300004F04CFF07F15403184601F015FA244B38
:102D40009B6E1846FDF770FB03460C4607F15400D6
:102D50001A462346244904F039FF07F15403184664
:102D600001F002FA1A4BDB6E1846FDF75DFB0346D5
:102D70000C4607F154001A4623461C4904F026FF6E
:102D800007F15403184601F0EFF9B7F83E31002B74
:102D900006D197F83D31002B02D0154801F0E4F937
:102DA00001F0C6F9134B00221A810AE001F0C0F9C4
:102DB000104B00221A8104E001F0BAF90D4B0022F9
:102DC0001A8100BF07F5A277BD4690BDECBA000896
:102DD0006824002004BB00081CBB000830BB0008AE
:102DE00044BB000860BB000878BB000890BB00082B
:102DF000A4BB00084003002090B585B002AF786006
:102E000039607868FDF710FB03460C46CDE90034C5
:102E10003A680449044804F0D9FE034B18460C37BD
:102E2000BD4690BDBCBB0008F801002080B500AFD6
:102E300001224021514802F024FC01224FF400718C
:102E40004F4802F01EFC01224FF480714C4802F002
:102E500018FC012280214A4802F013FC0122402183
:102E6000474802F00EFC01222021454802F009FCEF
:102E700001220421434802F004FC01224FF4805156
:102E80003E4802F0FEFB01224FF400613B4802F095
:102E9000F8FB01224FF40071384802F0F2FB0022E7
:102EA0004FF48061364802F0ECFB00224FF40061E1
:102EB000334802F0E6FB00224FF480712F4802F005
:102EC000E0FB002280212D4802F0DBFB70212E4820
:102ED00000F090FB0346FF2B02D1FEF79DFB05E0BF
:102EE000294800F095FC284800F0B8F900F056F8A1
:102EF0000346002B2DD0254802F060F8244B9B6838
:102F0000234A43F4800343F001039360214B42F2D0
:102F10002C02DA60252002F016FA1F4B4CF6CC4248
:102F20001A601D4B45F255521A601B4B04225A6021
:102F3000194B40F6FF729A6000BF174BDB68002BFD
:102F4000FBD1154B4AF6AA221A60322001F004FC8C
:102F500012E0002000F0A2FA0A2001F0FDFB01209F
:102F600000F0B8FA0A2001F0F7FB012000F096FA11
:102F70000221002002F0BEFB00BF80BD0010014016
:102F8000000C0140001401404C130020A413002049
:102F900000240140003801400030004080B582B07C
:102FA00000AF0023FB714FF40051164802F052FBB2
:102FB0000346002B02D0FB790133FB71102111482D
:102FC00002F048FB0346002B02D0FB790233FB7171
:102FD00020210C4802F03EFB0346002B02D0FB7977
:102FE0000433FB710421084802F034FB0346002B34
:102FF00002D0FB790833FB71FB7918460837BD46D0
:1030000080BD00BF00100140000C014090B587B0AA
:1030100000AFF8607B600B46FB721346BB727868AA
:10302000FDF702FA4FF00002864BFDF77FFB0346E7
:103030000C46184621464FF00002834BFDF74CFA30
:1030400003460C4618462146FDF71EFD0346DBB23B
:10305000FB75FB7A012B08D1BB7A012B05D100222D
:103060004FF40071794802F00CFBFB7A012B08D178
:10307000BB7A022B05D100224FF48071734802F015
:1030800000FBFB7A022B07D1BB7A012B04D1002273
:1030900080216E4802F0F5FAFB7A022B07D1BB7A49
:1030A000022B04D100224021684802F0EAFAFB7AA0
:1030B000032B07D1BB7A012B04D1002220216348C6
:1030C00002F0DFFAFB7A032B07D1BB7A022B04D183
:1030D000002204215E4802F0D4FAFB7A042B08D1C6
:1030E000BB7A012B05D100224FF48051594802F0E0
:1030F000C8FAFB7A042B08D1BB7A022B05D1002237
:103100004FF40061534802F0BCFAFB7A052B08D15A
:10311000BB7A012B05D100224FF400714D4802F01B
:10312000B0FA07F117014FF0FF330122F86803F0FE
:1031300002F9FB7A5A1EBB7A013BF87D46495200E0
:103140000A441344E83302461A70F97DFB7A773358
:103150009BB25B009AB2BB7A9BB213449BB2013B19
:103160009BB21A46F86800F0F7F9FB7A012B08D1F8
:10317000BB7A012B05D101224FF40071334802F0D4
:1031800080FAFB7A012B08D1BB7A022B05D10122F0
:103190004FF480712D4802F074FAFB7A022B07D1AC
:1031A000BB7A012B04D101228021284802F069FA60
:1031B000FB7A022B07D1BB7A022B04D101224021DA
:1031C000224802F05EFAFB7A032B07D1BB7A012B6F
:1031D00004D1012220211D4802F053FAFB7A032B6F
:1031E00007D1BB7A022B04D101220421184802F036
:1031F00048FAFB7A042B08D1BB7A012B05D10122B6
:103200004FF48051134802F03CFAFB7A042B08D1AA
:10321000BB7A022B05D101224FF400610D4802F068
:1032200030FAFB7A052B08D1BB7A012B05D101229C
:103230004FF40071074802F024FA00BF1C37BD4666
:1032400090BD00BF00003F4000005040000C014016
:1032500000140140001001406824002080B584B0B3
:1032600000AF78600123FB7308E10123BB73FEE02C
:10327000FB7B5A00BB7B13440B2B00F3F580FB7BDD
:1032800077339BB25B009AB2BB7B9BB213449BB279
:10329000013B9BB21946786800F0ACF903467B739A
:1032A000FB7B012B08D1BB7B012B05D100224FF406
:1032B0000071764802F0E5F9FB7B012B08D1BB7B5E
:1032C000022B05D100224FF48071704802F0D9F929
:1032D000FB7B022B07D1BB7B012B04D10022802179
:1032E0006A4802F0CEF9FB7B022B07D1BB7B022B95
:1032F00004D100224021654802F0C3F9FB7B032B77
:1033000007D1BB7B012B04D1002220215F4802F0B2
:10331000B8F9FB7B032B07D1BB7B022B04D1002226
:1033200004215B4802F0ADF9FB7B042B08D1BB7B89
:10333000012B05D100224FF48051564802F0A1F92B
:10334000FB7B042B08D1BB7B022B05D100224FF461
:103350000061504802F095F9FB7B052B08D1BB7B3F
:10336000012B05D100224FF400714A4802F089F97F
:1033700007F10D014FF0FF330122786802F0DBFF07
:10338000FB7B5A1EBB7B013B787B434952000A44BE
:103390001344E83302461A70FB7B012B08D1BB7B38
:1033A000012B05D101224FF40071384802F069F970
:1033B000FB7B012B08D1BB7B022B05D101224FF4F3
:1033C0008071324802F05DF9FB7B022B07D1BB7B99
:1033D000012B04D1012280212C4802F052F9FB7B01
:1033E000022B07D1BB7B022B04D1012240212748AD
:1033F00002F047F9FB7B032B07D1BB7B012B04D1E8
:1034000001222021214802F03CF9FB7B032B07D14C
:10341000BB7B022B04D1012204211D4802F031F9AB
:10342000FB7B042B08D1BB7B012B05D101224FF480
:103430008051184802F025F9FB7B042B08D1BB7B97
:10344000022B05D101224FF40061124802F019F954
:10345000FB7B052B08D1BB7B012B05D101224FF44F
:1034600000710C4802F00DF9BB7B0133BB73BB7BD1
:10347000022B7FF6FDAEFB7B0133FB73FB7B052B41
:103480007FF6F3AE00BF1037BD4680BD000C014093
:1034900000140140001001406824002080B582B073
:1034A00000AF0346FB71FB79012B06D100224FF4DC
:1034B0000061074802F0E5F805E001224FF40061E1
:1034C000034802F0DEF800BF0837BD4680BD00BFEC
:1034D000000C014080B582B000AF0346FB71FB7960
:1034E000002B05D001228021064802F0CAF804E032
:1034F00000228021034802F0C4F800BF0837BD460F
:1035000080BD00BF0010014080B584B000AF78607E
:1035100005233B73002240210E4802F0B2F807F168
:103520000C014FF0FF330122786802F004FF07F12D
:1035300008014FF0FF330122786803F030F80122D0
:103540004021044802F09DF83B7A18461037BD46EA
:1035500080BD00BF0010014080B586B000AF78602C
:103560000B46FB7013463B800123FB8264233B61C7
:1035700000BF7868FFF7C8FF034603F00103012B83
:10358000F7D006233B7300224021194802F079F856
:10359000FA8A07F10C013B69786802F0CCFE01223F
:1035A0004021134802F06DF80323FB823B88FF2B78
:1035B00002D90A233B7301E002233B733B88DBB251
:1035C0007B73FB78BB7300224021094802F059F855
:1035D000FA8A07F10C013B69786802F0ACFE01221F
:1035E0004021034802F04DF800BF1837BD4680BDAA
:1035F0000010014080B586B000AF78600B467B803C
:103600000123FB8264233B6100BF7868FFF77CFFE6
:10361000034603F00103012BF7D00223FB827B88D2
:10362000FF2B02D90B233B7301E003233B737B8801
:10363000DBB27B73002240210D4802F022F807F133
:103640000C013B690222786802F075FEFA8A07F1E4
:1036500008013B69786802F0A2FF0122402104487A
:1036600002F00FF83B7A18461837BD4680BD00BF00
:103670000010014080B58CB000AFF860B96013460F
:10368000FB7101237B8564237B62FB799BB21B0169
:103690007B8400BFF868FFF737FF034603F00103A0
:1036A000012BF7D006233B7400224021224801F071
:1036B000E8FF7A8D07F110017B6AF86802F03BFEA3
:1036C000012240211C4801F0DCFF12237B857B8C0A
:1036D000FF2B02D90A233B7401E002233B747B8C4D
:1036E000DBB27B740223FB620DE0FB6A023BBA682B
:1036F0001344197807F11002FB6A13440A461A7042
:10370000FB6A0133FB62FB6A112BEEDD00224021D4
:10371000094801F0B6FF7A8D07F110017B6AF8685D
:1037200002F009FE01224021034801F0AAFF00BF78
:103730003037BD4680BD00BF0010014080B584B069
:1037400000AF7860002229497868FFF793FF0122D3
:1037500027497868FFF78EFF022226497868FFF72D
:1037600089FF032224497868FFF784FF0422234954
:103770007868FFF77FFF052221497868FFF77AFF15
:10378000062220497868FFF775FF0023FB600FE0F1
:10379000FB681B011A461C4BD118FB68DBB20733D0
:1037A000DBB21A467868FFF765FFFB680133FB6000
:1037B000FB68032BECDD0023BB600FE0BB681B0143
:1037C0001A46124BD118BB68DBB20B33DBB21A4678
:1037D0007868FFF74FFFBB680133BB60BB68032B02
:1037E000ECDD00BF1037BD4680BD00BF682400205F
:1037F000782400208824002098240020A824002079
:10380000B8240020C8240020D8240020142500203B
:1038100080B582B000AF786060230A4A00217868E2
:1038200000F016F84023084A7021786800F010F87C
:103830004023064AB021786800F00AF800BF083734
:10384000BD4680BD68240020D82400201425002017
:1038500080B586B000AFF8607A601A460B467B816F
:1038600013463B8164237B6100BFF868FFF74CFE81
:10387000034603F00103012BF7D07B89FF2B02D90C
:103880000B233B7401E003233B747B89DBB27B7425
:10389000002240210C4801F0F4FE07F110017B6981
:1038A0000222F86802F047FD3A897B697968F86876
:1038B00002F075FE01224021034801F0E2FE00BF44
:1038C0001837BD4680BD00BF00100140F0B59DB067
:1038D0000EAFF8613E4800F047FC00233B636CE00C
:1038E00000237B6316E03B6B9BB21B019AB27B6BA0
:1038F0009BB213449BB21946F869FFF77BFE03465F
:10390000194607F120027B6B13440A461A707B6B41
:1039100001337B637B6B0F2BE5DD97F820309C46F2
:1039200097F821309E4697F82230184697F82330B2
:103930001C4697F824301D4697F825301E4697F808
:103940002630BB6197F827307B6197F828303B61C0
:1039500097F82930FB6097F82A30BB6097F82B3036
:103960007B6097F82C303B6097F82D30194697F81C
:103970002E301A4697F82F300D930C920B913A681F
:103980000A927A680992BA680892FA6807923A69C4
:1039900006927A690592BB69049303960295019495
:1039A0000090734662460B490B4804F00FF90A4831
:1039B00000F0DAFB3B6B01333B633B6B1F2B8FDD6E
:1039C000064800F0D1FB00BF3C37BD46F0BD00BF4C
:1039D000C0BB0008D4BB0008F002002028BC0008CF
:1039E00080B598B000AF00F055FE00F02FF900F060
:1039F00027FA00F087F900F0C3F900F0F7F94FF06B
:103A00000003FB650023BB65854B002283F8402043
:103A1000FFF70CFAFFF7C2FA03461A46814B1A70F9
:103A200000F06CFB00F084FB7E4B1B781A461346BB
:103A30009B0013445B00184600F08EFE7A4800F0AD
:103A400093FB774B00225A6400F07CFE034603F59B
:103A50007A737B65724B00229A64714B02221A8042
:103A60000020FFF71BFD0A2000F076FE0120FFF783
:103A700031FD0A2000F070FE0120FFF70FFD6B48BA
:103A800000F0BEFB664B1B881A463B466849184649
:103A900004F09CF83B46184600F0B2FB604B1B88D4
:103AA000012B09D14FF48061624801F002FEFDF75D
:103AB000B9FE642000F050FE594B1B88022B33D115
:103AC0004FF480615B4801F0F4FD00F03BFE0246DC
:103AD0007B6DD31A002B0ADD514B5B6C0133504ACE
:103AE000536400F02FFE034603F57A737B65FDF700
:103AF00045FB00F0CDFB0346002B03D0BB6D01332B
:103B0000BB6501E00023BB650A2000F025FEFDF740
:103B100089FE00F0BDFB0346002B05D0BB6DB3F55D
:103B20007A7F01DD00F004FB3D4B1B88032B54D151
:103B30004FF480613F4801F0BCFD4FF07C51F86DBF
:103B4000FDF718F80346FB653B49F86DFDF7D6FA1B
:103B50000346002B02D04FF00003FB65374B0122D8
:103B600001213748FFF752FAFB6D02220121344848
:103B7000FFF74CFA314B012202213148FFF746FA98
:103B8000FB6D022202212E48FFF740FA2B4B012247
:103B900003212B48FFF73AFAFB6D02220321284844
:103BA000FFF734FA254B012204212548FFF72EFAAE
:103BB000FB6D022204212248FFF728FA4FF0000390
:103BC000012205211E48FFF721FA0A2000F0C4FD5A
:103BD000FDF728FE642000F0BFFD114B1B88042B6D
:103BE0000BD14FF48061134801F063FD154800F0DC
:103BF000BBFA4FF4FA7000F0AFFD094B1B88052BA0
:103C000008D10F48FFF780FC034687F853300120A6
:103C100000F0A2FD0C4B4AF6AA221A603EE700BF54
:103C2000D4130020601400202CBC00083CBC000809
:103C300054BC0008000C01400000F041000020418D
:103C40004C13002068BC00080030004080B594B0E0
:103C500000AF07F1280328220021184603F07AF963
:103C600007F1140300221A605A609A60DA601A6140
:103C70003B1D00221A605A609A60DA600123BB6221
:103C80004FF48033FB6200233B630123BB630223B9
:103C90007B644FF48033BB644FF4E013FB6407F1A3
:103CA0002803184601F058FD0346002B01D000F010
:103CB00081F90F237B610223BB610023FB614FF479
:103CC00080633B6200237B6207F1140302211846E4
:103CD00001F0C2FF0346002B01D000F06BF9022374
:103CE0007B604FF40043FB603B1D184602F050F927
:103CF0000346002B01D000F05DF900BF5037BD46F0
:103D000080BD000080B584B000AF3B1D00221A606A
:103D10005A609A60184B194A1A60174B00229A6031
:103D2000154B00221A73144B00221A75124B4FF4D4
:103D30006022DA61104B00225A600F4B01221A6197
:103D40000D4800F02BFD0346002B01D000F032F9A6
:103D500002237B600123BB600023FB603B1D1946EF
:103D6000054800F0A7FF0346002B01D000F022F920
:103D700000BF1037BD4680BDA413002000240140C1
:103D800080B500AF174B184A1A60164B4FF4827279
:103D90005A60144B00229A60124B0022DA60114BD9
:103DA00000221A610F4B00225A610E4B4FF4007231
:103DB0009A610C4B2022DA610A4B00221A62094BED
:103DC00000225A62074B00229A62064B0A22DA62EC
:103DD000044802F04FFA0346002B01D000F0EAF845
:103DE00000BF80BD4C1300200038004080B500AFFC
:103DF000114B124A1A60104B4FF4E1325A600E4BCD
:103E000000229A600C4B0022DA600B4B00221A61F0
:103E1000094B0C225A61084B00229A61064B002282
:103E2000DA61054802F040FF0346002B01D000F0A4
:103E3000C1F800BF80BD00BF201400200038014041
:103E400080B588B000AF07F1100300221A605A60F5
:103E50009A60DA60534B9B69524A43F010039361B6
:103E6000504B9B6903F01003FB60FB684D4B9B6953
:103E70004C4A43F0200393614A4B9B6903F02003B3
:103E8000BB60BB68474B9B69464A43F004039361A0
:103E9000444B9B6903F004037B607B68414B9B6947
:103EA000404A43F0080393613E4B9B6903F00803CB
:103EB0003B603B6800224FF47E613B4801F0E1FB30
:103EC00000224FF4DE51394801F0DBFB00220421CF
:103ED000374801F0D6FB42F238033B6100237B6197
:103EE0000023BB6107F110031946304801F058FA6E
:103EF00004233B6100237B610023BB6107F11003B6
:103F00001946294801F04CFA4FF440633B61012304
:103F10007B610023BB610223FB6107F1100319469B
:103F2000214801F03DFA4FF4E0733B6101237B61CE
:103F30000023BB610223FB6107F1100319461B48F4
:103F400001F02EFA4FF4D0533B6101237B61002333
:103F5000BB610323FB6107F110031946134801F00D
:103F60001FFA04233B6101237B610023BB61032310
:103F7000FB6107F1100319460D4801F011FA4FF4E7
:103F800078733B6101237B610023BB610323FB61E9
:103F900007F110031946044801F002FA00BF203768
:103FA000BD4680BD00100240000C014000100140E1
:103FB0000014014080B400AF00BFBD4680BC704714
:103FC00080B582B000AF494BDB6803F08003002B63
:103FD00033D0464B1B6803F08003002B2DD0444B9D
:103FE0001A88434B5B889A421BD001224FF48071A0
:103FF000404801F046FB3E4B5B881A463C4B13445D
:104000001A793A4B5A603A4B5B8801335A42C3F3F0
:104010000B03C2F30B0258BF53429AB2344B5A807F
:104020000BE000224FF48071324801F02AFB2F4B45
:10403000DB682E4A23F08003D3602C4BDB6803F04F
:104040002003002B4ED0294B1B6803F02003002BCC
:1040500048D0264B1B6803F00803002B42D1234BAA
:104060005B68FB71244B1B881A46234B1344FA7977
:104070009A72214B1B8801335A42C3F30B03C2F3DC
:104080000B0258BF53429AB21B4B1A80FB790D2B7F
:1040900028D1194B01221A81174B5A88164B9A8046
:1040A000154B1A88144B9B88D31A9BB201339AB2D2
:1040B000114BDA80104B1B881A460F4B1344002219
:1040C0009A720D4B1B8801335A42C3F30B03C2F3A0
:1040D0000B0258BF53429AB2074B1A80064B1A88FC
:1040E000054B5A8000BF0837BD4680BD00380140EF
:1040F00064140020001001404003002080B500AF90
:10410000252001F02EF9084B00225A80064B002290
:104110001A8000224FF48071044801F0B2FA252081
:1041200001F011F900BF80BD6414002000100140AF
:1041300080B500AF252001F014F90A4B00225A8007
:10414000084B00221A80074B00229A80054B002260
:104150001A81044B0022DA80252001F0F4F800BF18
:1041600080BD00BF4003002080B584B000AF786000
:104170001E4BDA681D494FF67F731340CB601C4B12
:104180001B781A467B681B491B4803F01FFD002360
:10419000FB6019E0194B1B881946174AFB6813444A
:1041A0001A78164B0B441A71144B1B8801335A4270
:1041B000C3F30B03C2F30B0258BF53429AB20F4B27
:1041C0001A80FB680133FB600B48FBF7C1FF024616
:1041D000FB689A42DED8054BDB68044A43F0800353
:1041E000D36000BF1037BD4680BD00BF003801401E
:1041F0006014002088BC00084802002064140020DD
:1042000080B584B000AF78601E4B93F84030002B2F
:1042100033D01D4BDA681C494FF67F731340CB60D7
:104220000023FB6019E0FB687A681344174A128880
:1042300011461A78154B0B441A71144B1B88013325
:104240005A42C3F30B03C2F30B0258BF53429AB254
:104250000E4B1A80FB680133FB607868FBF778FF30
:104260000246FB689A42DED8074BDB68064A43F0F9
:104270008003D360012000F06FFA00BF1037BD4605
:1042800080BD00BFD413002000380140641400201A
:1042900080B400AF084B5A88074B1B889A4205D060
:1042A000054B1B89002B01D1012300E00023184698
:1042B000BD4680BC704700BF4003002080B485B07D
:1042C00000AF154B9B69144A43F001039361124BF5
:1042D0009B6903F00103BB60BB680F4BDB690E4AAF
:1042E00043F08053D3610C4BDB6903F080537B6058
:1042F0007B680A4B5B68FB60FB6823F0E063FB6054
:10430000FB6843F00073FB60044AFB68536000BF26
:104310001437BD4680BC70470010024000000140C9
:1043200080B58AB000AF786007F1180300221A60E8
:104330005A609A60DA607B681B682A4A93424DD1C2
:10434000294B9B69284A43F400739361264B9B6970
:1043500003F400737B617B69234B9B69224A43F022
:1043600010039361204B9B6903F010033B613B6991
:104370001D4B9B691C4A43F0040393611A4B9B69D4
:1043800003F00403FB60FB68174B9B69164A43F07C
:1043900008039361144B9B6903F00803BB60BB687F
:1043A0000723BB610323FB6107F1180319460F487C
:1043B00000F0F6FFFE23BB610323FB6107F1180346
:1043C00019460B4800F0ECFF0323BB610323FB619C
:1043D00007F118031946074800F0E2FF00BF28372D
:1043E000BD4680BD00240140001002400010014085
:1043F00000080140000C014080B588B000AF786033
:1044000007F1100300221A605A609A60DA607B6834
:104410001B681C4A934231D11B4BDB691A4A43F497
:104420008043D361184BDB6903F48043FB60FB6876
:10443000154B9B69144A43F008039361124B9B6927
:1044400003F00803BB60BB684FF420433B610223C9
:104450007B610323FB6107F1100319460B4800F051
:104460009FFF4FF480433B6100237B610023BB61CE
:1044700007F110031946054800F092FF00BF2037EE
:10448000BD4680BD0038004000100240000C0140D5
:1044900080B588B000AF786007F1100300221A6081
:1044A0005A609A60DA607B681B681C4A934231D17B
:1044B0001B4B9B691A4A43F480439361184B9B69D9
:1044C00003F48043FB60FB68154B9B69144A43F07F
:1044D00004039361124B9B6903F00403BB60BB6848
:1044E0004FF400733B6102237B610323FB6107F1FF
:1044F000100319460B4800F053FF4FF480633B61F3
:1045000000237B610023BB6107F1100319460548B6
:1045100000F046FF00BF2037BD4680BD0038014097
:10452000001002400008014080B400AF00BFBD464B
:1045300080BC704780B500AF0148FFF715FEFEE76D
:1045400090BC000880B400AFFEE780B400AFFEE787
:1045500080B400AFFEE780B400AF00BFBD4680BCB2
:10456000704780B400AF00BFBD4680BC704780B4C8
:1045700000AF00BFBD4680BC704780B500AF00F003
:10458000CFF800BF80BD000080B584B000AF786078
:10459000114B1B68002B02D10F4B104A1A600E4BB7
:1045A0001B68FB600C4B1A687B6813446A46934295
:1045B00007D902F0A5FC02460C2313604FF0FF332D
:1045C00006E0054B1A687B681344034A1360FB68D6
:1045D00018461037BD4680BD98020020682500208F
:1045E00080B400AF154B1B68144A43F001031360FD
:1045F000124B5A681149124B13404B600F4B1B680A
:104600000E4A23F0847323F4803313600B4B1B6832
:104610000A4A23F480231360084B5B68074A23F49B
:10462000FE035360054B4FF41F029A60054B4FF099
:1046300000629A6000BFBD4680BC70470010024017
:104640000000FFF800ED00E0002103E00B4B5B5899
:10465000435004310A480B4B42189A42F6D30A4A97
:1046600002E0002342F8043B084B9A42F9D3FFF7DB
:10467000B7FF02F04BFCFFF7B3F97047B8BF000873
:1046800000000020DC010020DC0100206425002067
:10469000FEE7000080B500AF084B1B68074A43F0F7
:1046A00010031360032000F027FE002000F008F83C
:1046B000FFF704FE0023184680BD00BF0020024023
:1046C00080B582B000AF7860124B1A68124B1B782D
:1046D00019464FF47A73B3FBF1F3B2FBF3F31846C8
:1046E00000F051FE0346002B01D001230EE07B6851
:1046F0000F2B0AD8002279684FF0FF3000F007FE38
:10470000064A7B681360002300E00123184608373F
:10471000BD4680BD000000200800002004000020ED
:1047200080B400AF054B1B781A46054B1B68134439
:10473000034A136000BFBD4680BC704708000020DC
:104740005C25002080B400AF024B1B681846BD46B4
:1047500080BC70475C25002080B584B000AF7860D5
:10476000FFF7F0FFB8607B68FB60FB68B3F1FF3FC9
:1047700005D0094B1B781A46FB681344FB6000BF49
:10478000FFF7E0FF0246BB68D31AFA689A42F7D8EF
:1047900000BF1037BD4680BD0800002080B586B040
:1047A00000AF78600023FB7500233B610023BB60F2
:1047B0000023FB607B68002B01D10123BEE07B68F6
:1047C0009B68002B7B689B6A002B09D17B680022C9
:1047D000DA627B68002283F824207868FFF7A0FD66
:1047E000786800F0B1FB0346FB757B689B6A03F0B9
:1047F0001003002B40F09980FB7D002B40F095804A
:104800007B689B6A23F4885323F0020343F002027F
:104810007B689A627B685A687B68DB691A437B68AD
:104820001B7B5B001343BA681343BB607B689B68C8
:10483000B3F5807F03D07B689B68012B02D14FF4D6
:10484000807300E000233A6913433B617B681B7D62
:10485000012B19D17B681B7B002B09D17B689B69DD
:10486000013B5A033B69134343F400633B610BE094
:104870007B689B6A43F020027B689A627B68DB6AF4
:1048800043F001027B68DA627B681B685B6823F493
:1048900069417B681B683A690A435A607B681B68F8
:1048A0009A68284B13407A681268B9680B43936082
:1048B0007B689B68B3F5807F03D07B689B68012B86
:1048C00004D17B681B69013B1B05FB607B681B688F
:1048D000DB6A23F470017B681B68FA680A43DA62BA
:1048E0007B681B689A68184B1340BA689A420BD1D0
:1048F0007B680022DA627B689B6A23F0030343F043
:1049000001027B689A6218E07B689B6A23F01203BD
:1049100043F010027B689A627B68DB6A43F0010215
:104920007B68DA620123FB7507E07B689B6A43F0D2
:1049300010027B689A620123FB75FB7D18461837CD
:10494000BD4680BDFDF7E1FFFE0E1FFF80B584B0C0
:1049500000AF78600023FB737B6893F82430012B51
:1049600001D1022398E07B68012283F82420786833
:1049700000F098FA0346FB73FB7B002B40F0878026
:104980007B689B6A23F4407323F0010343F4807235
:104990007B689A627B681B68414A934205D1414B10
:1049A0005B6803F47023002B15D17B689B6A23F4AA
:1049B00080127B689A627B681B685B6803F4806383
:1049C000002B26D07B689B6A23F4405343F480522B
:1049D0007B689A621DE07B689B6A43F480127B6867
:1049E0009A627B681B682F4A934204D07B681B68DD
:1049F0002B4A93420DD12B4B5B6803F48063002B51
:104A000007D07B689B6A23F4405343F480527B6851
:104A10009A627B689B6A03F48053002B06D07B6804
:104A2000DB6A23F006027B68DA6202E07B68002220
:104A3000DA627B68002283F824207B681B686FF0B1
:104A400002021A607B681B689B6803F46023B3F55D
:104A5000602F13D17B681B68114A934205D1114B1B
:104A60005B6803F47023002B08D17B681B689A688D
:104A70007B681B6842F4A0029A600CE07B681B68AC
:104A80009A687B681B6842F480129A6003E07B6836
:104A9000002283F82420FB7B18461037BD4680BDDA
:104AA000002801400024014090B587B000AF786035
:104AB000396000237B610023FB6000233B61FFF72B
:104AC00041FE78617B681B689B6803F48073002B50
:104AD0000BD07B689B6A43F020027B689A627B68FC
:104AE000002283F824200123C8E07B681B685B68F0
:104AF00003F48073002B2AD17B681B68DB6A03F404
:104B00007003002B23D11AE03B68B3F1FF3F16D0AE
:104B10003B68002B07D0FFF715FE02467B69D31ACE
:104B20003A689A420BD27B689B6A43F004027B6826
:104B30009A627B68002283F8242003239EE07B682E
:104B40001B681B6803F00203002BDDD06CE04D4BAB
:104B50001C68022001F0D2FA0346B4FBF3F27B6832
:104B60001B681969484B0B40002B18D17B681B68E8
:104B7000D968464B0B40002B11D17B681B68196923
:104B8000434B0B40002B08D17B681B68D968414B15
:104B90000B40002B01D1142320E029231EE07B6869
:104BA0001B6819693A4B0B40002B06D17B681B68C8
:104BB000D968384B0B40002B0DD07B681B681969F6
:104BC000354B0B40002B08D17B681B68D968324BF2
:104BD0000B40002B01D1542300E0FC2302FB03F324
:104BE0003B611DE03B68B3F1FF3F16D03B68002BF3
:104BF00007D0FFF7A7FD02467B69D31A3A689A42AD
:104C00000BD27B689B6A43F004027B689A627B68E4
:104C1000002283F82420032330E0FB680133FB608B
:104C2000FB683A699A42DDD87B681B686FF0120214
:104C30001A607B689B6A43F400727B689A627B68A7
:104C40001B689B6803F46023B3F5602F15D17B6864
:104C50001B7B002B11D17B689B6A23F480727B68DD
:104C60009A627B689B6A03F48053002B05D17B68B2
:104C70009B6A43F001027B689A62002318461C3746
:104C8000BD4690BD00000020244992242449920092
:104C900092244912922449004992240080B483B09E
:104CA00000AF78607B681B68DB6C18460C37BD462C
:104CB00080BC704780B485B000AF78603960002355
:104CC000FB730023BB607B6893F82430012B01D178
:104CD0000223DCE07B68012283F824203B685B68C8
:104CE000062B1CD87B681B68596B3B685A681346B7
:104CF0009B001344053B1F2202FA03F3DB431940D8
:104D00003B6818683B685A6813469B001344053B90
:104D100000FA03F27B681B680A435A633CE03B6875
:104D20005B680C2B1CD87B681B68196B3B685A6846
:104D300013469B001344233B1F2202FA03F3DB4379
:104D400019403B6818683B685A6813469B00134437
:104D5000233B00FA03F27B681B680A431A631BE0DB
:104D60007B681B68D96A3B685A6813469B001344EA
:104D7000413B1F2202FA03F3DB4319403B681868EA
:104D80003B685A6813469B001344413B00FA03F208
:104D90007B681B680A43DA623B681B68092B1CD9D5
:104DA0007B681B68D9683B681A6813465B0013442C
:104DB0001E3B072202FA03F3DB4319403B68986865
:104DC0003B681A6813465B0013441E3B00FA03F26B
:104DD0007B681B680A43DA6019E07B681B68196905
:104DE0003B681A6813465B001344072202FA03F378
:104DF000DB4319403B6898683B681A6813465B00C0
:104E0000134400FA03F27B681B680A431A613B688B
:104E10001B68102B03D03B681B68112B32D17B68B9
:104E20001B681D4A934225D17B681B689B6803F46D
:104E30000003002B26D17B681B689A687B681B687F
:104E400042F400029A603B681B68102B1AD1134B86
:104E50001B68134AA2FB03239A0C13469B001344BE
:104E60005B00BB6002E0BB68013BBB60BB68002B22
:104E7000F9D107E07B689B6A43F020027B689A6265
:104E80000123FB737B68002283F82420FB7B1846F8
:104E90001437BD4680BC704700240140000000204C
:104EA00083DE1B4380B584B000AF78600023FB60D5
:104EB0000023BB607B681B689B6803F00103012B28
:104EC00039D07B681B689A687B681B6842F00102D6
:104ED0009A601B4B1B681B4AA2FB03239B0CBB6005
:104EE00002E0BB68013BBB60BB68002BF9D1FFF758
:104EF00029FCF86018E0FFF725FC0246FB68D31A8E
:104F0000022B11D97B689B6A43F010027B689A627E
:104F10007B68DB6A43F001027B68DA627B6800220F
:104F200083F82420012307E07B681B689B6803F05B
:104F30000103012BDFD1002318461037BD4680BD89
:104F40000000002083DE1B4380B584B000AF786092
:104F50000023FB607B681B689B6803F00103012B47
:104F600027D17B681B689A687B681B6822F0010266
:104F70009A60FFF7E7FBF86014E0FFF7E3FB0246F7
:104F8000FB68D31A022B0DD97B689B6A43F0100291
:104F90007B689A627B68DB6A43F001027B68DA62B5
:104FA000012307E07B681B689B6803F00103012B6A
:104FB000E3D0002318461037BD4680BD90B587B0BA
:104FC00000AF78600023FB750023FB607B6893F8DB
:104FD0002430012B01D1022386E07B68012283F873
:104FE00024207868FFF7B0FF0346FB75FB7D002B9C
:104FF00075D17B689B6A23F4885323F0020343F046
:1050000002027B689A623A4B1C68022001F076F833
:105010000346B4FBF3F35B00FB6002E0FB68013B7B
:10502000FB60FB68002BF9D17868FFF73BFF7B68DA
:105030001B689A687B681B6842F008029A60FFF759
:1050400081FB386114E0FFF77DFB02463B69D31A10
:105050000A2B0DD97B689B6A23F0120343F01002E0
:105060007B689A627B68002283F8242001233BE05E
:105070007B681B689B6803F00803002BE3D17B6807
:105080001B689A687B681B6842F004029A60FFF70D
:1050900059FB386114E0FFF755FB02463B69D31A10
:1050A0000A2B0DD97B689B6A23F0120343F0100290
:1050B0007B689A627B68002283F82420012313E036
:1050C0007B681B689B6803F00403002BE3D17B68BB
:1050D0009B6A23F0030343F001027B689A627B68BA
:1050E000002283F82420FB7D18461C37BD4690BD66
:1050F0000000002080B485B000AF78607B6803F0CA
:105100000703FB600C4BDB68BB60BA684FF6FF031C
:105110001340BB60FB681A02BB68134343F0BF63D4
:1051200043F40033BB60044ABB68D36000BF14374C
:10513000BD4680BC704700BF00ED00E080B400AF0A
:10514000044BDB681B0A03F007031846BD4680BC0E
:10515000704700BF00ED00E080B483B000AF0346AD
:10516000FB7197F90730002B0BDBFB7903F01F0273
:10517000064997F907305B09012000FA02F241F86D
:10518000232000BF0C37BD4680BC704700E100E023
:1051900080B483B000AF0346FB7197F90730002B52
:1051A00010DBFB7903F01F02094997F907305B090F
:1051B000012000FA02F2203341F82320BFF34F8F81
:1051C000BFF36F8F00BF0C37BD4680BC704700BF78
:1051D00000E100E080B483B000AF03463960FB71AA
:1051E00097F90730002B0ADB3B68DAB20C4997F9D4
:1051F00007301201D2B20B4483F800230AE03B6867
:10520000DAB20849FB7903F00F03043B1201D2B272
:105210000B441A7600BF0C37BD4680BC704700BFF8
:1052200000E100E000ED00E080B489B000AFF8607C
:10523000B9607A60FB6803F00703FB61FB69C3F1A7
:105240000703042B28BF0423BB61FB690433062B2F
:1052500002D9FB69033B00E000237B614FF0FF3282
:10526000BB6902FA03F3DA43BB681A407B699A40D0
:105270004FF0FF317B6901FA03F3D9437B680B40A0
:10528000134318462437BD4680BC704780B400AF36
:10529000BFF34F8F054BDB6803F4E0620349044B17
:1052A0001343CB60BFF34F8F00BFFDE700ED00E07D
:1052B0000400FA0580B582B000AF78607B68013BDE
:1052C000B3F1807F01D301230FE00A4A7B68013BE1
:1052D00053600F214FF0FF30FFF77CFF054B00229A
:1052E0009A60044B07221A60002318460837BD460F
:1052F00080BD00BF10E000E080B582B000AF7860F4
:105300007868FFF7F7FE00BF0837BD4680BD80B55F
:1053100086B000AF0346B9607A60FB7300237B61FF
:10532000FFF70CFF78617A68B9687869FFF77CFF4E
:10533000024697F90F3011461846FFF74BFF00BFA2
:105340001837BD4680BD80B582B000AF0346FB7103
:1053500097F907301846FFF7FFFE00BF0837BD4634
:1053600080BD80B582B000AF0346FB7197F907306E
:105370001846FFF70DFF00BF0837BD4680BD80B55A
:1053800000AFFFF783FF80B582B000AF7860786828
:10539000FFF790FF034618460837BD4680BD000062
:1053A00080B48BB000AF7860396000237B6200234B
:1053B0003B6227E101227B6A02FA03F3FB613B684F
:1053C0001B68FA691340BB61BA69FB699A4240F0F5
:1053D00016813B685B68122B34D0122B0DD8022B40
:1053E0002BD0022B04D8002B31D0012B1CD048E04D
:1053F000032B43D0112B1BD043E0894A934226D084
:10540000874A934206D8874A934220D0864A9342DD
:105410001DD036E0854A934219D0854A934216D072
:10542000844A934213D02CE03B68DB683B6228E05F
:105430003B68DB6804333B6223E03B68DB6808338E
:105440003B621EE03B68DB680C333B6219E03B6863
:105450009B68002B02D104233B6212E03B689B68EF
:10546000012B05D108233B627B68FA691A6108E0C9
:1054700008233B627B68FA695A6102E000233B62C1
:1054800000BFBB69FF2B01D87B6801E07B68043358
:105490007B61BB69FF2B02D87B6A9B0002E07B6AC1
:1054A000083B9B003B617B691A680F213B6901FA4D
:1054B00003F3DB431A40396A3B6901FA03F31A43E9
:1054C0007B691A603B685B6803F08053002B00F037
:1054D0009680594B9B69584A43F001039361564BA0
:1054E0009B6903F00103BB60BB68544A7B6A9B085D
:1054F000023352F82330FB607B6A03F003039B0006
:105500000F2202FA03F3DB43FA681340FB607B6867
:105510004B4A934213D07B684A4A93420DD07B6832
:10552000494A934207D07B68484A934201D10323FA
:1055300006E0042304E0022302E0012300E000234C
:105540007A6A02F0030292009340FA681343FB6008
:105550003A497B6A9B080233FA6841F823203B688A
:105560005B6803F48033002B06D0394B1A68384946
:10557000BB6913430B6006E0354B1A68BB69DB431C
:10558000334913400B603B685B6803F40033002B26
:1055900006D02F4B5A682E49BB6913434B6006E077
:1055A0002B4B5A68BB69DB43294913404B603B686E
:1055B0005B6803F48013002B06D0254B9A682449BE
:1055C000BB6913438B6006E0214B9A68BB69DB43E0
:1055D0001F4913408B603B685B6803F40013002B8A
:1055E00006D01B4BDA681A49BB691343CB6006E04F
:1055F000174BDA68BB69DB4315491340CB607B6A04
:1056000001337B623B681A687B6A22FA03F3002B42
:105610007FF4D0AE00BF2C37BD4680BC704700BFC2
:1056200000002110000011100000121000003110C5
:105630000000321000002210001002400000014063
:1056400000080140000C014000100140001401401E
:105650000004014080B485B000AF78600B467B80C9
:105660007B689A687B881340002B02D00123FB7370
:1056700001E00023FB73FB7B18461437BD4680BC5A
:10568000704780B483B000AF78600B467B801346D0
:105690007B707B78002B03D07A887B681A6103E0EB
:1056A0007B881A047B681A6100BF0C37BD4680BC3A
:1056B000704780B483B000AF78600B467B807B6816
:1056C000DA687B881340002B03D07A887B685A61A4
:1056D00002E07A887B681A6100BF0C37BD4680BC47
:1056E000704780B400AF20BF00BF00BFBD4680BC84
:1056F0007047000080B582B000AF78600B46FB7049
:10570000134B1B68124A23F002031360104B1B68F3
:1057100023F001020E497B6813430B600D4B1B699C
:105720000C4A43F004031361FB78012B01D130BF15
:1057300004E040BFFFF7D5FFFFF7D3FF054B1B6920
:10574000044A23F00403136100BF0837BD4680BD3F
:105750000070004000ED00E080B586B000AF7860DA
:105760007B68002B01D101236CE27B681B6803F08E
:105770000103002B00F08780924B5B6803F00C0361
:10578000042B0CD08F4B5B6803F00C03082B12D159
:105790008C4B5B6803F48033B3F5803F0BD1894BAE
:1057A0001B6803F40033002B6CD07B685B68002B14
:1057B00068D1012346E27B685B68B3F5803F06D180
:1057C000804B1B687F4A43F4803313602EE07B6874
:1057D0005B68002B0CD17B4B1B687A4A23F4803327
:1057E0001360784B1B68774A23F4802313601DE015
:1057F0007B685B68B3F5A02F0CD1724B1B68714AB4
:1058000043F4802313606F4B1B686E4A43F480336C
:1058100013600BE06B4B1B686A4A23F48033136000
:10582000684B1B68674A23F4802313607B685B68BE
:10583000002B13D0FEF786FF386108E0FEF782FFE9
:1058400002463B69D31A642B01D90323FAE15D4B6D
:105850001B6803F40033002BF0D014E0FEF772FF56
:10586000386108E0FEF76EFF02463B69D31A642BED
:1058700001D90323E6E1534B1B6803F40033002BEB
:10588000F0D100E000BF7B681B6803F00203002B2F
:1058900063D04C4B5B6803F00C03002B0BD0494BDF
:1058A0005B6803F00C03082B1CD1464B5B6803F4C8
:1058B0008033002B16D1434B1B6803F00203002BEF
:1058C00005D07B681B69012B01D00123BAE13D4B58
:1058D0001B6823F0F8027B685B69DB0039491343DE
:1058E0000B603AE07B681B69002B20D0364B01220D
:1058F0001A60FEF727FF386108E0FEF723FF024633
:105900003B69D31A022B01D903239BE12D4B1B6862
:1059100003F00203002BF0D02A4B1B6823F0F8029F
:105920007B685B69DB00274913430B6015E0264B5E
:1059300000221A60FEF706FF386108E0FEF702FF5A
:1059400002463B69D31A022B01D903237AE11D4B8E
:105950001B6803F00203002BF0D17B681B6803F087
:105960000803002B3AD07B689B69002B19D0174B9A
:1059700001221A60FEF7E6FE386108E0FEF7E2FE5B
:1059800002463B69D31A022B01D903235AE10D4B7E
:105990005B6A03F00203002BF0D0012000F0DAFA7A
:1059A0001CE00A4B00221A60FEF7CCFE38610FE0C3
:1059B000FEF7C8FE02463B69D31A022B08D903231F
:1059C00040E100BF00100240000042428004424219
:1059D0009E4B5B6A03F00203002BE9D17B681B68D6
:1059E00003F00403002B00F0A6800023FB75974B07
:1059F000DB6903F08053002B0DD1944BDB69934A94
:105A000043F08053D361914BDB6903F08053BB605B
:105A1000BB680123FB758E4B1B6803F48073002B5E
:105A200018D18B4B1B688A4A43F480731360FEF7CE
:105A300089FE386108E0FEF785FE02463B69D31A0D
:105A4000642B01D90323FDE0814B1B6803F48073B1
:105A5000002BF0D07B68DB68012B06D17B4B1B6AE7
:105A60007A4A43F0010313622DE07B68DB68002B68
:105A70000CD1764B1B6A754A23F001031362734BFA
:105A80001B6A724A23F0040313621CE07B68DB6824
:105A9000052B0CD16D4B1B6A6C4A43F00403136257
:105AA0006A4B1B6A694A43F0010313620BE0674BC0
:105AB0001B6A664A23F001031362644B1B6A634A44
:105AC00023F0040313627B68DB68002B15D0FEF71C
:105AD00039FE38610AE0FEF735FE02463B69D31A0B
